:020000040800F2
:1000000000000220C1130008251300082B1300086C
:1000100031130008371300083D13000800000000EA
:100020000000000000000000000000004313000872
:1000300051130008000000005F1300086D13000852
:1000400011140008111400081114000811140008FC
:1000500011140008111400081114000811140008EC
:1000600011140008111400081114000811140008DC
:1000700011140008111400081114000811140008CC
:1000800011140008111400081114000811140008BC
:1000900011140008111400081114000811140008AC
:1000A000111400081114000811140008111400089C
:1000B000111400081114000811140008111400088C
:1000C000111400081114000811140008111400087C
:1000D0001114000811140008791300081114000805
:1000E0008D130008111400081114000811140008E1
:1000F000111400081114000811140008111400084C
:10010000111400081114000811140008111400083B
:10011000111400081114000811140008111400082B
:10012000111400081114000811140008111400081B
:100130001114000800000000000000001114000865
:1001400011140008111400081114000811140008FB
:1001500011140008111400081114000811140008EB
:1001600011140008111400081114000811140008DB
:1001700011140008111400081114000800000000F8
:100180000000000011140008000000000000000042
:100190001114000800000000000000001114000805
:1001A0000000000000000000000000001114000822
:1001B000111400081114000811140008111400088B
:0401C000111400080E
:1001C40010B5054C237833B9044B13B10448AFF38D
:1001D40000800123237010BD0C00002000000000EB
:1001E400FC3F000808B5034B1BB103490348AFF3B8
:1001F400008008BD0000000010000020FC3F000843
:10020400034613F8012B002AFBD1181A0138704752
:1002140053B94AB9002908BF00281CBF4FF0FF3169
:100224004FF0FF3000F074B9ADF1080C6DE904CE65
:1002340000F006F8DDF804E0DDE9022304B07047BD
:100244002DE9F047089D04468E46002B4DD18A4285
:10025400944669D9B2FA82F252B101FA02F3C2F1B8
:10026400200120FA01F10CFA02FC41EA030E944049
:100274004FEA1C48210CBEFBF8F61FFA8CF708FB6A
:1002840016E341EA034306FB07F199420AD91CEB42
:10029400030306F1FF3080F01F81994240F21C8174
:1002A400023E63445B1AA4B2B3FBF8F008FB1033BC
:1002B40044EA034400FB07F7A7420AD91CEB0404F1
:1002C40000F1FF3380F00A81A74240F207816444C1
:1002D400023840EA0640E41B00261DB1D440002346
:1002E400C5E900433146BDE8F0878B4209D9002DAA
:1002F40000F0EF800026C5E9000130463146BDE834
:10030400F087B3FA83F6002E4AD18B4202D382429D
:1003140000F2F980841A61EB030301209E46002D4C
:10032400E0D0C5E9004EDDE702B9FFDEB2FA82F2A1
:10033400002A40F09280A1EB0C014FEA1C471FFAFF
:100344008CFE0126200CB1FBF7F307FB131140EAE6
:1003540001410EFB03F0884208D91CEB010103F1B3
:10036400FF3802D2884200F2CB804346091AA4B275
:10037400B1FBF7F007FB101144EA01440EFB00FE49
:10038400A64508D91CEB040400F1FF3102D2A645AE
:1003940000F2BB800846A4EB0E0440EA03409CE74D
:1003A400C6F12007B34022FA07FC4CEA030C20FAFA
:1003B40007F401FA06F31C43F9404FEA1C4900FA1A
:1003C40006F3B1FBF9F8200C1FFA8CFE09FB181197
:1003D40040EA014108FB0EF0884202FA06F20BD90A
:1003E4001CEB010108F1FF3A80F08880884240F25A
:1003F4008580A8F102086144091AA4B2B1FBF9F09E
:1004040009FB101144EA014100FB0EFE8E4508D998
:100414001CEB010100F1FF346CD28E456AD902381D
:10042400614440EA0840A0FB0294A1EB0E01A14202
:10043400C846A64656D353D05DB1B3EB080261EB70
:100444000E0101FA07F722FA06F3F1401F43C5E94A
:10045400007100263146BDE8F087C2F12003D84080
:100464000CFA02FC21FA03F3914001434FEA1C47C2
:100474001FFA8CFEB3FBF7F007FB10360B0C43EAB4
:10048400064300FB0EF69E4204FA02F408D91CEB64
:10049400030300F1FF382FD29E422DD90238634462
:1004A4009B1B89B2B3FBF7F607FB163341EA034102
:1004B40006FB0EF38B4208D91CEB010106F1FF3851
:1004C40016D28B4214D9023E6144C91A46EA004648
:1004D40038E72E46284605E70646E3E61846F8E6DA
:1004E4004B45A9D2B9EB020864EB0C0E0138A3E723
:1004F4004646EAE7204694E74046D1E7D0467BE704
:10050400023B614432E7304609E76444023842E77B
:10051400704700BF80B487B000AF786039600023B3
:100524007B61264B3B613B691B78FB733AE07A693C
:100534001346DB009B1A9B001A467B6813441B7A04
:10054400002B2CD10023BB601CE07A691346DB002E
:100554009B1A9B001A467B681A44BB6813440933F0
:100564001B78FA7B9A4202D10023BB7301E001237A
:100574001DE03B6901333B613B691B78FB73BB683E
:100584000133BB607A691346DB009B1A9B001A4651
:100594007B6813441B781A46BB689342D5DB7B699E
:1005A40001337B617A693B689A42C0D3BB7B1846AE
:1005B4001C37BD465DF8047B704700BF000001088E
:1005C400B0B586B000AF786039600023FB820023A9
:1005D400FB7301F0DFF900F055F845E000233B61BF
:1005E40032E0FA8A1346DB009B1A9B001A467B68AA
:1005F40013441B7A002B24D1FA8A1346DB009B1A7E
:100604009B001A467B68134459684A1C5A60FA8A4C
:100614001346DB009B1A9B001A467B681A443B690D
:10062400134409331B78DBB200221C4615462246CC
:100634002B46002001F05AF90346002B01D000F0AC
:10064400F1FD3B6901333B61FA8A1346DB009B1AD7
:100654009B001A467B6813441B781A463B699342F5
:10066400BFDBFB8A0133FB823B681B88FA8A9A4210
:10067400B4D901F0B1F90346FB73FB7B1846183774
:10068400BD46B0BD80B584B000AF0023FB6000233D
:10069400BB6000237B60164800F032F8F860154810
:1006A40000F02EF80246FB68D31A0133BB60124BEC
:1006B40000221A60104B02221A610F4AFB689360F1
:1006C4000D4ABB68D3603B1D19460B4801F0D4FAB0
:1006D4000346002B05D001222021084801F082FDA9
:1006E400F9E7642000F03AFF00BF1037BD4680BD33
:1006F40000000108FFFF030828000020000002405A
:1007040080B485B000AF78600023FB607B682A4A20
:10071400934206D27B68B3F1006F02D30023FB60DF
:1007240043E07B68254A934206D27B68224A93427F
:1007340002D30123FB6038E07B68214A934206D24E
:100744007B681E4A934202D30223FB602DE07B6840
:100754001C4A934206D87B68194A934202D3032366
:10076400FB6022E07B68184A934206D87B68154AEE
:10077400934202D90423FB6017E07B68134A934237
:1007840006D87B68104A934202D90523FB600CE02B
:100794007B680F4A934206D87B680C4A934202D97D
:1007A4000623FB6001E00723FB60FB68184614374F
:1007B400BD465DF8047B70470040000800800008D7
:1007C40000C00008FFFF0008FFFF0108FFFF030847
:1007D400FFFF050880B487B000AFF8607A603B6023
:1007E4000B467B810023FB820023BB8200237B8298
:1007F40000237B7461E0FB8AFA6813441B783B7422
:100804003B7C0D2B4ED03B7C3A2B4BD03B7C0A2BB4
:1008140048D03B7C2F2B0AD93B7C392B07D87B8AC9
:100824007A6813443A7C303AD2B21A7036E03B7C90
:10083400413B052B32D801A252F823F05908000895
:1008440065080008710800087D0800088908000888
:10085400950800087B8A7A6813440A221A701DE0FE
:100864007B8A7A6813440B221A7017E07B8A7A68B1
:1008740013440C221A7011E07B8A7A6813440D2207
:100884001A700BE07B8A7A6813440E221A7005E012
:100894007B8A7A6813440F221A7000BF7B8A013363
:1008A4007B8207E03B7C0A2B04D17B8A7A68134461
:1008B4003A221A70FB8A0133FB82FA8A7B899A42B4
:1008C40099D9FB8A002B03D101237B747B7C25E01F
:1008D4000023BB821CE0BB8A7A6813441B783A2B42
:1008E4001AD0BB8A5B001A467B6813441B781B0131
:1008F400D9B2BB8A5B0001337A6813441A78BB8A85
:10090400786803440A44D2B21A70BB8A0133BB82AA
:10091400BB8A632BDFD900E000BF7B7C18461C3701
:10092400BD465DF8047B704780B485B000AF786045
:100934000023FB600023FB720023FB6009E0FB68DB
:100944007A6813441A78FB7A1344FB72FB68013308
:10095400FB607B681B780433FA689A42EFDDFB7A0C
:10096400002B01D0052300E0012318461437BD46AF
:100974005DF8047B7047000080B489B000AFF86074
:10098400B9607A603B600023FB830023BB830023B0
:100994007B6100233B610623FB767B681B881A4638
:1009A4001346DB009B1A9B001A46BB681344FA6883
:1009B400D2781A727B681B881A461346DB009B1A8E
:1009C4009B001A46BB681344FA6812781A707B6855
:1009D4001B881A461346DB009B1A9B001A46BB6809
:1009E40013441B7A052B79D801A252F823F000BFD7
:1009F400310A0008DB0A0008E10A0008E10A0008DD
:100A04000D0A0008B30A0008FB6804331B781B02B4
:100A1400FA680532127813441B041A463B681A60BC
:100A24007B6800221A800023FB765AE00023FB83B4
:100A34000023BB8329E0FB8B032B23D97B681B8812
:100A44001A461346DB009B1A9B001A46BB681344E4
:100A54001B78DA1CFB8B9A4214DBFB8BFA68D118E7
:100A64007B681B881A461346DB009B1A9B001A46B8
:100A7400BB681A44BB8B097813440A465A72BB8B71
:100A84000133BB83FB8B0133FB837B681B881A46D2
:100A94001346DB009B1A9B001A46BB6813441B7861
:100AA400DA1CFB8B9A42C6DA0123FB7619E0FB6859
:100AB40004331B781B02FA680532127813441B03B3
:100AC4007B613B681B687A699A4201D00423FB76F8
:100AD4000223FB7605E00323FB7602E00623FB7684
:100AE40000BFFB7E062B19D0FB6802331B781A4625
:100AF400FB6801331B781B0213443B613B68196894
:100B04007B681B881A461346DB009B1A9B001A4617
:100B1400BB6813443A690A445A600CE07B681B883A
:100B24001A461346DB009B1A9B001A46BB68134403
:100B34004FF6FF725A607B681B8801339AB27B6858
:100B44001A80FB7E18462437BD465DF8047B704747
:100B540080B59EB000AFF8607A603B600B467B8145
:100B6400002387F8763000233B6107F114036022E9
:100B74000021184603F038FA062387F8773007F186
:100B8400100279893B68F868FFF724FE034687F86A
:100B9400763097F87630002B01D0062318E007F161
:100BA40010031846FFF7C0FE0346052B0BD007F1D0
:100BB4001000D7F880303A687968FFF7DDFE034605
:100BC40087F8773002E0052387F8773097F8773095
:100BD40018467837BD4680BDB0B5ADF5E54D8CB04F
:100BE40002AF002307F5E54202F12502137000234A
:100BF40007F5E54202F12402137007F52A73A3F501
:100C04000F73BF4A1C4615460FCD0FC42B681A46F6
:100C1400228002341B0C237007F52A73A3F5157385
:100C2400B84A1C4615460FCD0FC495E80300206052
:100C34000434217007F52A73A3F51F73B24A1C46C6
:100C440015460FCD0FC40FCD0FC495E803002060E7
:100C54000434218002340B0C237007F52A73A3F5A6
:100C64002273AA4A07CA83E8070007F52A73A3F583
:100C74002573A74A07CA03C31A800233120C1A70D9
:100C840007F52A73A3F52873A24A07CA03C31A7087
:100C9400002307F5E54202F12602138007F52A73C3
:100CA400A3F2A22300221A8007F52A73A3F52A735C
:100CB40000221A6000F0ACFB00F068F900F0FEF9C5
:100CC40000F0D2F9944B1B68DA68934B1B6842F02E
:100CD4001002DA60192291498F4802F096F9904B7C
:100CE4001B78DBB2002B00F0A18007F12802223A26
:100CF40007F1A803283B11461846FFF761FC034699
:100D040007F5E54202F12502137007F5E54303F107
:100D140025031B78002B6AD107F52A73A3F2A223BB
:100D24001B881A4607F1A803283B11461846FFF70B
:100D3400F1FB034607F5E54202F12302137007F5C0
:100D4400E54303F123031B78002B40D12021754890
:100D540001F061FA07F1A8033C3B1846FFF750FA8B
:100D640003469AB207F1A8013C3964236A4802F0A9
:100D7400BAF8012000F0F2FB6B4B1B6807F5E54263
:100D840002F11C02136007F5E54303F11C031B6821
:100D940007F5E54202F11802136000F05BFB72B63E
:100DA40000BF624B1B6807F5E54202F114021360B1
:100DB40007F5E54303F114031B6883F3088800BFB8
:100DC40007F5E54303F118031B6898471EE007F194
:100DD400A8037C3B1846FFF713FA03469AB207F1BF
:100DE400A8017C3964234C4802F07DF80EE007F139
:100DF400A803543B1846FFF703FA03469AB207F1D7
:100E0400A80154396423444802F06DF8444B1B781C
:100E1400DBB2002B14BF01230023DBB283F00103F8
:100E2400DBB203F00103DAB23D4B1A70404B1B787E
:100E3400DBB2002B3FF453AF0AE007F5E54303F1BF
:100E440026031B88013307F5E54202F126021380CD
:100E540007F5E54303F126031B88304AD35C0A2BCC
:100E6400EBD107F12801223907F1A802283A07F546
:100E7400E54303F12603188807F12803283B009370
:100E84000B4601462548FFF763FE034607F5E54296
:100E940002F12402137007F5E54303F124031B78E0
:100EA400042B06D007F5E54303F124031B78062B36
:100EB40040D107F5E54303F124031B78052B0FD13B
:100EC40007F12803143B1846FFF79AF903469AB230
:100ED40007F12801143964230F4802F004F849E0AB
:100EE40007F12803203B1846FFF78AF903469AB214
:100EF40007F1280120396423074801F0F4FF39E0A1
:100F040014400008284000084040000868400008D9
:100F140074400008804000083C000020800000204D
:100F2400CB0000200000024004000108000001087A
:100F3400CC00002007F5E54303F124031B78032BC1
:100F44000ED107F12803083B1846FFF759F9034669
:100F54009AB207F12801083964230A4801F0C3FF53
:100F6400002307F5E54202F126021380064B002216
:100F74001A70B4E60023184607F5E5472837BD463E
:100F8400B0BD00BF3C000020CC00002080B594B070
:100F940000AF07F11C0334220021184603F024F8A3
:100FA40007F1080300221A605A609A60DA601A6135
:100FB40000237B602A4B1B6C294A43F08053136443
:100FC400274B1B6C03F080537B607B6800233B60E2
:100FD400244B1B6823F44043224A43F480431360A8
:100FE400204B1B6803F440433B603B680223FB61D6
:100FF4000123BB621023FB6202237B630023BB63D8
:101004001023FB634FF4A8733B6404237B64022323
:10101400BB640223FB6407F11C03184601F078FC4F
:101024000346002B01D000F0FDF80F23BB60022320
:10103400FB6000233B614FF480537B610023BB6161
:1010440007F108030221184601F018F90346002BA2
:1010540001D000F0E7F800BF5037BD4680BD00BFA7
:10106400003802400070004080B500AF114B124AB6
:101074001A60104B4FF4E1325A600E4B00229A6012
:101084000C4B0022DA600B4B00221A61094B0C2234
:101094005A61084B00229A61064B0022DA61054826
:1010A40001F0D4FE0346002B01D000F0BBF800BFD2
:1010B40080BD00BF3C0000200044004080B588B0E3
:1010C40000AF07F10C0300221A605A609A60DA60DC
:1010D4001A610023BB602A4B1B6B294A43F00403AB
:1010E4001363274B1B6B03F00403BB60BB68002333
:1010F4007B60234B1B6B224A43F080031363204B1A
:101104001B6B03F080037B607B6800233B601C4BFC
:101114001B6B1B4A43F001031363194B1B6B03F056
:1011240001033B603B6800222021164801F05AF875
:101134004FF40053FB604FF404133B6100237B61C5
:1011440007F10C031946104800F0B8FE2023FB6099
:1011540001233B6100237B610023BB6107F10C0386
:101164001946084800F0AAFE00220021282000F0B9
:10117400F4FA282000F00DFB00BF2037BD4680BDE7
:1011840000380240000002400008024080B582B0EE
:1011940000AF0346FB80FB88B3F5005F13D10C4B13
:1011A4001B78DBB2002B14BF01230023DBB283F0D6
:1011B4000103DBB203F00103DAB2054B1A702021FC
:1011C400044801F028F800BF0837BD4680BD00BFC1
:1011D400CB0000200000024080B582B000AF7860F0
:1011E4000B467B807B680B4A93420FD17B68DB8D77
:1011F4009BB2C3F132039AB2074B1A8032220749D9
:10120400044801F002FF064B01221A7000BF0837A0
:10121400BD4680BD3C000020CE00002080000020A0
:10122400CC00002080B400AF72B600BFFEE700001F
:1012340080B582B000AF00237B60104B5B6C0F4A1B
:1012440043F4804353640D4B5B6C03F480437B6035
:101254007B6800233B60094B1B6C084A43F08053B6
:101264001364064B1B6C03F080533B603B68072000
:1012740000F068FA00BF0837BD4680BD0038024060
:1012840080B58AB000AF786007F1140300221A60B9
:101294005A609A60DA601A617B681B681D4A93423F
:1012A40033D100233B611C4B1B6C1B4A43F40033BA
:1012B4001364194B1B6C03F400333B613B6900233B
:1012C400FB60154B1B6B144A43F001031363124B71
:1012D4001B6B03F00103FB60FB680C237B6102239F
:1012E400BB610023FB6103233B6207237B6207F19D
:1012F40014031946094800F0E1FD002200212620CC
:1013040000F02BFA262000F044FA00BF2837BD462F
:1013140080BD00BF0044004000380240000002408D
:1013240080B400AFFEE780B400AFFEE780B400AF46
:10133400FEE780B400AFFEE780B400AFFEE780B400
:1013440000AF00BFBD465DF8047B704780B400AFBA
:1013540000BFBD465DF8047B704780B400AF00BF9A
:10136400BD465DF8047B704780B500AF00F0D6F849
:1013740000BF80BD80B500AF024801F0ABFE00BFE6
:1013840080BD00BF3C00002080B500AF4FF400508A
:1013940000F05CFF00BF80BD80B400AF064BD3F803
:1013A4008830054A43F47003C2F8883000BFBD4654
:1013B4005DF8047B704700BF00ED00E0DFF834D037
:1013C4000D480E490E4A002302E0D458C450043399
:1013D400C4188C42F9D30B4A0B4C002301E0136070
:1013E4000432A242FBD3FFF7D7FF02F0D9FDFFF787
:1013F400F3FB704700000220000000200C000020D6
:10140400B44000080C000020F4000020FEE70000B7
:1014140080B500AF0E4B1B680D4A43F40073136094
:101424000B4B1B680A4A43F480631360084B1B6828
:10143400074A43F480731360032000F083F900200B
:1014440000F03CF8FFF7F4FE0023184680BD00BF0F
:10145400003C024080B500AF134B4FF0FF321A62DC
:10146400114B00221A62104B4FF0FF325A620E4B9E
:1014740000225A620C4B4FF0FF321A610A4B0022D1
:101484001A61094B4FF0FF325A61074B00225A612F
:10149400054B4FF0FF329A61034B00229A6100F032
:1014A40005F80023184680BD0038024080B400AF20
:1014B40000BFBD465DF8047B7047000080B582B074
:1014C40000AF7860124B1A68124B1B7819464FF420
:1014D4007A73B3FBF1F3B2FBF3F3184600F067F948
:1014E4000346002B01D001230EE07B680F2B0AD8A2
:1014F400002279684FF0FF3000F02FF9064A7B682C
:101504001360002300E0012318460837BD4680BD60
:1015140000000020080000200400002080B400AF78
:10152400064B1B781A46064B1B681344044A136087
:1015340000BFBD465DF8047B704700BF0800002073
:10154400D000002080B400AF034B1B681846BD4692
:101554005DF8047B704700BFD000002080B584B0E4
:1015640000AF7860FFF7EEFFB8607B68FB60FB6854
:10157400B3F1FF3F05D00A4B1B781A46FB681344AE
:10158400FB6000BFFFF7DEFF0246BB68D31AFA68B0
:101594009A42F7D800BF00BF1037BD4680BD00BFD8
:1015A4000800002080B485B000AF78607B6803F049
:1015B4000703FB600C4BDB68BB60BA684FF6FF03A4
:1015C4001340BB60FB681A02BB68134343F0BF635C
:1015D40043F40033BB60044ABB68D36000BF1437D4
:1015E400BD465DF8047B704700ED00E080B400AFB9
:1015F400044BDB681B0A03F007031846BD465DF87D
:10160400047B704700ED00E080B483B000AF034674
:10161400FB7197F90730002B0BDBFB7903F01F02FA
:10162400074997F907305B09012000FA02F241F8F3
:10163400232000BF0C37BD465DF8047B704700BF14
:1016440000E100E080B483B000AF03463960FB7171
:1016540097F90730002B0ADB3B68DAB20C4997F99B
:1016640007301201D2B20B4483F800230AE03B682E
:10167400DAB20849FB7903F00F03043B1201D2B23A
:101684000B441A7600BF0C37BD465DF8047B7047E7
:1016940000E100E000ED00E080B489B000AFF86044
:1016A400B9607A60FB6803F00703FB61FB69C3F16F
:1016B4000703042B28BF0423BB61FB690433062BF7
:1016C40002D9FB69033B00E000237B614FF0FF324A
:1016D400BB6902FA03F3DA43BB681A407B699A4098
:1016E4004FF0FF317B6901FA03F3D9437B680B4068
:1016F400134318462437BD465DF8047B7047000049
:1017040080B582B000AF78607B68013BB3F1807F25
:1017140001D301230FE00A4A7B68013B53600F2188
:101724004FF0FF30FFF78EFF054B00229A60044B09
:1017340007221A60002318460837BD4680BD00BF43
:1017440010E000E080B582B000AF78607868FFF701
:1017540029FF00BF0837BD4680BD80B586B000AF05
:101764000346B9607A60FB7300237B61FFF73EFF99
:1017740078617A68B9687869FFF78EFF024697F94D
:101784000F3011461846FFF75DFF00BF1837BD46FE
:1017940080BD80B582B000AF0346FB7197F9073076
:1017A4001846FFF731FF00BF0837BD4680BD80B53E
:1017B40082B000AF78607868FFF7A2FF034618464E
:1017C4000837BD4680BD80B584B000AF78607B68C3
:1017D4009B6DFB60FFF7B6FEB8607B6893F835300D
:1017E400DBB2022B08D07B6880225A657B6800221A
:1017F40083F83420012352E07B681B681A687B68F5
:101804001B6822F016021A607B681B685A697B68A1
:101814001B6822F080025A617B681B6C002B03D189
:101824007B689B6C002B07D07B681B681A687B68FD
:101834001B6822F008021A607B681B681A687B68C0
:101844001B6822F001021A6013E0FFF77BFE0246D8
:10185400BB68D31A052B0CD97B6820225A657B6898
:10186400032283F835207B68002283F83420032385
:1018740015E07B681B681B6803F00103002BE4D1AF
:101884007B68DB6D3F229A40FB689A607B6801228B
:1018940083F835207B68002283F83420002318461F
:1018A4001037BD4680BD80B483B000AF78607B68DC
:1018B40093F83530DBB2022B04D07B6880225A6562
:1018C40001230CE07B68052283F835207B681B68C4
:1018D4001A687B681B6822F001021A60002318460C
:1018E4000C37BD465DF8047B7047000080B586B0B8
:1018F40000AFF860B960C7E900230123FB75234BEF
:101904001B7E012B01D102233BE0204B01221A76DE
:101914004CF2503000F070F80346FB75FB7D002B51
:101924002BD1FB68002B05D13B781946B86800F031
:101934001BF916E0FB68012B05D13B881946B868F2
:1019440000F0EEF80DE0FB68022B05D13B68194668
:10195400B86800F0C3F804E0D7E90023B86800F0E1
:101964008BF84CF2503000F047F80346FB75084BF7
:101974001B69074A23F001031361044B00221A7602
:10198400FB7D18461837BD4680BD00BFD40000203B
:10199400003C024080B483B000AF0023FB710B4BCA
:1019A4001B69002B0BDA094B094A5A60074B094A99
:1019B4005A60064B1B69002B01DA0123FB71FB798A
:1019C40018460C37BD465DF8047B7047003C024066
:1019D40023016745AB89EFCD80B400AF054B1B698C
:1019E400044A43F00043136100231846BD465DF8E2
:1019F400047B7047003C024080B584B000AF78603F
:101A04000023FB601A4B0022DA61FFF79BFDF860AC
:101A140010E07B68B3F1FF3F0CD07B68002B07D04C
:101A2400FFF790FD0246FB68D31A7A689A4201D206
:101A3400032319E00F4BDB6803F48033002BE8D158
:101A44000C4BDB6803F00103002B02D0094B01228D
:101A5400DA60084BDB6803F4F973002B03D000F061
:101A6400A5F8012300E0002318461037BD4680BDC9
:101A7400D4000020003C024080B485B000AFF86080
:101A8400C7E90023144B1B69134A23F44073136101
:101A9400114B1B69104A43F4407313610E4B1B69CD
:101AA4000D4A43F001031361FB683A681A60BFF3FF
:101AB4006F8F00BFD7E900014FF000024FF0000321
:101AC4000A000023F968043113460B6000BF143781
:101AD400BD465DF8047B7047003C024080B483B08F
:101AE40000AF786039600D4B1B690C4A23F44073D6
:101AF40013610A4B1B69094A43F400731361074BD2
:101B04001B69064A43F0010313617B683A681A6053
:101B140000BF0C37BD465DF8047B7047003C0240B3
:101B240080B483B000AF78600B467B800D4B1B699B
:101B34000C4A23F4407313610A4B1B69094A43F4AA
:101B440080731361074B1B69064A43F00103136159
:101B54007B687A881A8000BF0C37BD465DF8047B29
:101B6400704700BF003C024080B483B000AF78608F
:101B74000B46FB700C4B1B690B4A23F44073136137
:101B8400094B094A1B691361074B1B69064A43F059
:101B9400010313617B68FA781A7000BF0C37BD46E5
:101BA4005DF8047B704700BF003C024080B400AF86
:101BB4002F4BDB6803F01003002B08D02D4BDB699F
:101BC40043F010032B4AD361294B1022DA60284BCF
:101BD400DB6803F02003002B08D0264BDB6943F0BD
:101BE4000803244AD361224B2022DA60204BDB68AD
:101BF40003F04003002B08D01E4BDB6943F00403C1
:101C04001C4AD3611A4B4022DA60194BDB6803F09B
:101C14008003002B08D0174BDB6943F00203154AFD
:101C2400D361134B8022DA60114BDB6803F48073B9
:101C3400002B09D00F4BDB6943F001030D4AD3613C
:101C44000B4B4FF48072DA60094BDB6803F002033C
:101C5400002B08D0074BDB6943F02003054AD3610E
:101C6400034B0222DA6000BFBD465DF8047B704777
:101C7400003C0240D400002080B584B000AF7860FE
:101C840039600123FB730023BB60314B1B7E012BA6
:101C940001D1022358E02E4B01221A764CF2503027
:101CA400FFF7AAFE0346FB73FB7B002B48D13B687E
:101CB4004FF0FF321A607B681B68012B15D17B68DB
:101CC4001B69DAB27B685B681946104600F044F879
:101CD4004CF25030FFF790FE0346FB731D4B1B691B
:101CE4001C4A23F00403136128E07B689B68BB60F3
:101CF4001CE07B681B69DBB21946B86800F050F839
:101D04004CF25030FFF778FE0346FB73114B1B690E
:101D1400104A23F0FA031361FB7B002B03D03B68CA
:101D2400BA681A600AE0BB680133BB607B68DA6892
:101D34007B689B681344BA689A42DAD300F078F857
:101D4400034B00221A76FB7B18461037BD4680BD34
:101D5400D4000020003C024080B483B000AF0346AE
:101D64003960FB710D4B1B690C4A23F440731361FA
:101D74000A4B1B69094A43F004031361074B1A69B0
:101D8400FB791B021343054A43F48033136100BFFC
:101D94000C37BD465DF8047B704700BF003C024031
:101DA40080B485B000AF78600B46FB700023FB6005
:101DB400FB78002B02D10023FB6010E0FB78012BA1
:101DC40003D14FF48073FB6009E0FB78022B03D14D
:101DD4004FF40073FB6002E04FF44073FB60134B5D
:101DE4001B69124A23F440731361104B1A690F499B
:101DF400FB6813430B610D4B1B690C4A23F0F8037A
:101E040013610A4B1A697B68DB001343074A43F0EA
:101E140002031361054B1B69044A43F480331361C5
:101E240000BF1437BD465DF8047B7047003C024098
:101E340080B400AF204B1B6803F40073002B17D051
:101E44001D4B1B681C4A23F4007313601A4B1B6858
:101E5400194A43F400631360174B1B68164A23F4B2
:101E640000631360144B1B68134A43F4007313603C
:101E7400114B1B6803F48063002B17D00E4B1B68B7
:101E84000D4A23F4806313600B4B1B680A4A43F426
:101E940080531360084B1B68074A23F48053136074
:101EA400054B1B68044A43F48063136000BFBD46BE
:101EB4005DF8047B704700BF003C024080B489B0E9
:101EC40000AF7860396000237B6100233B6100230D
:101ED400BB610023FB6165E10122FB6902FA03F3A4
:101EE4007B613B681B687A6913403B613A697B6993
:101EF4009A4240F054813B685B6803F00303012B72
:101F040005D03B685B6803F00303022B30D17B6888
:101F14009B68BB61FB695B00032202FA03F3DB43AA
:101F2400BA691340BB613B68DA68FB695B0002FA7B
:101F340003F3BA691343BB617B68BA699A607B682F
:101F44005B68BB610122FB6902FA03F3DB43BA69F4
:101F54001340BB613B685B681B0903F00102FB692A
:101F640002FA03F3BA691343BB617B68BA695A6026
:101F74003B685B6803F00303032B17D07B68DB68C3
:101F8400BB61FB695B00032202FA03F3DB43BA691A
:101F94001340BB613B689A68FB695B0002FA03F378
:101FA400BA691343BB617B68BA69DA603B685B68F2
:101FB40003F00303022B23D1FB69DA087B680832A0
:101FC40053F82230BB61FB6903F007039B000F2227
:101FD40002FA03F3DB43BA691340BB613B681A6935
:101FE400FB6903F007039B0002FA03F3BA69134386
:101FF400BB61FB69DA087B680832B96943F82210CF
:102004007B681B68BB61FB695B00032202FA03F374
:10201400DB43BA691340BB613B685B6803F00302AE
:10202400FB695B0002FA03F3BA691343BB617B6883
:10203400BA691A603B685B6803F44033002B00F014
:10204400AE800023FB605D4B5B6C5C4A43F48043D1
:1020540053645A4B5B6C03F48043FB60FB68584A3F
:10206400FB699B08023352F82330BB61FB6903F020
:1020740003039B000F2202FA03F3DB43BA69134004
:10208400BB617B684F4A934225D07B684E4A93429A
:102094001FD07B684D4A934219D07B684C4A9342C7
:1020A40013D07B684B4A93420DD07B684A4A9342D3
:1020B40007D07B68494A934201D106230CE00723E9
:1020C4000AE0052308E0042306E0032304E00223D6
:1020D40002E0012300E00023FA6902F00302920007
:1020E4009340BA691343BB613549FB699B080233CA
:1020F400BA6941F823203A4B9B68BB613B69DB43D7
:10210400BA691340BB613B685B6803F48013002B1E
:1021140003D0BA693B691343BB61314ABB6993601D
:102124002F4BDB68BB613B69DB43BA691340BB617E
:102134003B685B6803F40013002B03D0BA693B6966
:102144001343BB61264ABB69D360254B5B68BB6103
:102154003B69DB43BA691340BB613B685B6803F4CA
:102164000033002B03D0BA693B691343BB611C4A9B
:10217400BB6953601A4B1B68BB613B69DB43BA699B
:102184001340BB613B685B6803F48033002B03D0CE
:10219400BA693B691343BB61114ABB691360FB69AC
:1021A4000133FB61FB690F2B7FF696AE00BF00BFC6
:1021B4002437BD465DF8047B704700BF00380240F9
:1021C40000380140000002400004024000080240C0
:1021D400000C0240001002400014024000180240AB
:1021E400003C014080B483B000AF78600B467B8034
:1021F40013467B707B78002B03D07A887B689A61C6
:1022040003E07B881A047B689A6100BF0C37BD46E3
:102214005DF8047B704780B485B000AF78600B46EE
:102224007B807B685B69FB607A88FB6813401A04D7
:10223400FB68D9437B880B401A437B689A6100BFD3
:102244001437BD465DF8047B7047000080B582B04A
:1022540000AF0346FB80084B5A69FB881340002BF0
:1022640006D0054AFB885361FB881846FEF78EFFAB
:1022740000BF0837BD4680BD003C014080B584B036
:1022840000AF786039607B68002B01D10123CCE07A
:10229400684B1B6803F00F033A689A420CD9654BEC
:1022A4003A68D2B21A70634B1B6803F00F033A68A2
:1022B4009A4201D00123B8E07B681B6803F0020353
:1022C400002B20D07B681B6803F00403002B05D08F
:1022D400594B9B68584A43F4E05393607B681B68EE
:1022E40003F00803002B05D0534B9B68524A43F478
:1022F40060439360504B9B6823F0F0027B689B68BB
:102304004D4913438B607B681B6803F00103002B6A
:1023140044D07B685B68012B07D1474B1B6803F4EF
:102324000033002B19D101237FE07B685B68022B0B
:1023340003D07B685B68032B07D13F4B1B6803F01A
:102344000073002B09D101236FE03B4B1B6803F0A2
:102354000203002B01D1012367E0374B9B6823F074
:1023640003027B685B68344913438B60FFF7EAF828
:10237400F8600AE0FFF7E6F80246FB68D31A41F278
:102384008832934201D903234FE02B4B9B6803F01F
:102394000C027B685B689B009A42EBD1254B1B685F
:1023A40003F00F033A689A420CD2224B3A68D2B235
:1023B4001A70204B1B6803F00F033A689A4201D04D
:1023C400012332E07B681B6803F00403002B08D070
:1023D400194B9B6823F4E0527B68DB68164913436E
:1023E4008B607B681B6803F00803002B09D0124B39
:1023F4009B6823F460427B681B69DB000E4913432E
:102404008B6000F055F802460B4B9B681B0903F0E8
:102414000F030A49CB5C22FA03F3094A1360094B00
:102424001B681846FFF74AF8002318461037BD46C4
:1024340080BD00BF003C0240003802408C400008D0
:10244400000000200400002080B400AF034B1B6890
:102454001846BD465DF8047B704700BF00000020AD
:1024640080B500AFFFF7F0FF0246054B9B689B0A5F
:1024740003F007030349CB5C22FA03F3184680BD3B
:10248400003802409C40000880B500AFFFF7DCFF35
:102494000246054B9B685B0B03F007030349CB5CC7
:1024A40022FA03F3184680BD003802409C4000081D
:1024B4002DE9B04FAEB000AF0023C7F8AC30002315
:1024C400C7F8B4300023C7F8A8300023C7F8A430F5
:1024D4000023C7F8B030CB4B9B6803F00C030C2BE4
:1024E40000F2068201A252F823F000BF252500085D
:1024F400F5280008F5280008F52800082D2500080F
:10250400F5280008F5280008F528000835250008F6
:10251400F5280008F5280008F528000825270008F4
:10252400B94BC7F8B030E7E1B84BC7F8B030E3E1D6
:10253400B44B5B6803F03F03C7F8AC30B14B5B6846
:1025440003F48003002B71D0AE4B5B689B0900221F
:10255400C7F89830C7F89C20D7F89830C3F308031D
:10256400C7F890300023C7F89430D7E924452246B1
:102574002B464FF000004FF00001590141EAD261AF
:10258400500102460B462146511A3964294663EB31
:1025940001037B644FF000024FF00003D7E9108978
:1025A40049468B01414643EA916341468A014146CB
:1025B400511AB963494663EB0103FB634FF0000210
:1025C4004FF00003D7E90E894946CB00414643EA60
:1025D40051734146CA0010461946034622469B18C9
:1025E4003B632B460A4642EB03037B634FF0000236
:1025F4004FF00003D7E90C4529464B02214643EA34
:10260400D15321464A0210461946D7F8AC3000226D
:10261400C7F88830C7F88C20D7E92223FDF7F8FDE6
:1026240002460B461346C7F8B43067E0754B5B6847
:102634009B090022C7F88030C7F88420D7F880307F
:10264400C3F30803BB670023FB67D7E91E45224693
:102654002B464FF000004FF00001590141EAD261CE
:10266400500102460B462146511AB962294663EBD2
:102674000103FB624FF000024FF00003D7E90A891F
:1026840049468B01414643EA916341468A014146EA
:10269400B2EB010A494663EB010B4FF000024FF025
:1026A40000034FEACB0343EA5A734FEACA02924645
:1026B4009B4623461AEB03033B622B464BEB030377
:1026C4007B624FF000024FF00003D7E9084529462A
:1026D4008B02214643EA915321468A021046194649
:1026E400D7F8AC3000223B677A67D7E91C23FDF7A3
:1026F4008FFD02460B461346C7F8B430414B5B6866
:102704001B0C03F0030301335B00C7F8A830D7F8B0
:10271400B420D7F8A830B2FBF3F3C7F8B030EBE03D
:10272400384B5B6803F03F03C7F8AC30354B5B684C
:1027340003F48003002B6BD0324B5B689B090022AF
:10274400BB66FA66BB6EC3F308033B6600237B6675
:10275400D7E9184522462B464FF000004FF0000100
:10276400590141EAD261500102460B462146511AF1
:10277400B961294663EB0103FB614FF000024FF09E
:102784000003D7E906AB59468B01514643EA9163EE
:1027940051468A015146B2EB0108594663EB0109DF
:1027A4004FF000024FF000034FEAC90343EA5873A5
:1027B4004FEAC80290469946234618EB03033B614F
:1027C4002B4649EB03037B614FF000024FF00003FB
:1027D400D7E9044529464B02214643EAD153214611
:1027E4004A0210461946D7F8AC300022BB65FA6598
:1027F400D7E91623FDF70CFD02460B461346C7F82E
:10280400B43065E0003802400024F40000127A007D
:102814003D4B5B689B09002218461146C0F3080330
:102824003B6500237B65D7E9148942464B464FF04C
:1028340000004FF00001590141EAD2615001024603
:102844000B464146511AB960494663EB0103FB60EC
:102854004FF000024FF00003D7E902AB59468B0159
:10286400514643EA916351468A015146541A5946E6
:1028740063EB01054FF000024FF00003EB0043EA65
:102884005473E20014461D464346E3183B604B462E
:1028940045EB03037B604FF000024FF00003D7E9E0
:1028A400004529468B02214643EA915321468A0278
:1028B40010461946D7F8AC300022BB64FA64D7E955
:1028C4001223FDF7A5FC02460B461346C7F8B430A5
:1028D4000D4B5B681B0F03F00703C7F8A430D7F850
:1028E400B420D7F8A430B2FBF3F3C7F8B03003E058
:1028F400064BC7F8B03000BFD7F8B0301846B83729
:10290400BD46BDE8B08F00BF003802400024F4008B
:1029140080B586B000AF78607B68002B01D10123BD
:102924008DE27B681B6803F00103002B00F08380B9
:10293400944B9B6803F00C03042B19D0914B9B68B8
:1029440003F00C03082B06D18E4B5B6803F4800361
:10295400B3F5800F0CD08B4B9B6803F00C030C2B4E
:1029640012D1884B5B6803F48003B3F5800F0BD15D
:10297400844B1B6803F40033002B5BD07B685B68DB
:10298400002B57D101235AE27B685B68B3F5803F83
:1029940006D17C4B1B687B4A43F4803313601DE0F3
:1029A4007B685B68B3F5A02F0CD1764B1B68754A26
:1029B40043F480231360734B1B68724A43F48033DF
:1029C40013600BE06F4B1B686E4A23F48033136073
:1029D4006C4B1B686B4A23F4802313607B685B6831
:1029E400002B13D0FEF7AEFD386108E0FEF7AAFD18
:1029F40002463B69D31A642B01D903231FE2614BBE
:102A04001B6803F40033002BF0D014E0FEF79AFDAA
:102A1400386108E0FEF796FD02463B69D31A642B41
:102A240001D903230BE2574B1B6803F40033002B3B
:102A3400F0D100E000BF7B681B6803F00203002BA9
:102A44006FD0504B9B6803F00C03002B17D04D4BF9
:102A54009B6803F00C03082B05D14A4B5B6803F415
:102A64008003002B0BD0474B9B6803F00C030C2B0B
:102A74001CD1444B5B6803F48003002B16D1414BFB
:102A84001B6803F00203002B05D07B68DB68012B75
:102A940001D00123D3E13B4B1B6823F0F8027B6890
:102AA4001B69DB00374913430B603AE07B68DB6842
:102AB400002B20D0344B01221A60FEF743FD38610D
:102AC40008E0FEF73FFD02463B69D31A022B01D909
:102AD4000323B4E12B4B1B6803F00203002BF0D05B
:102AE400284B1B6823F0F8027B681B69DB0025492F
:102AF40013430B6015E0244B00221A60FEF722FDFD
:102B0400386108E0FEF71EFD02463B69D31A022B2A
:102B140001D9032393E11B4B1B6803F00203002B31
:102B2400F0D17B681B6803F00803002B36D07B6868
:102B34005B69002B16D0154B01221A60FEF702FDCB
:102B4400386108E0FEF7FEFC02463B69D31A022B0B
:102B540001D9032373E10B4B5B6F03F00203002BDA
:102B6400F0D01BE0094B00221A60FEF7EBFC386141
:102B74000EE0FEF7E7FC02463B69D31A022B07D9A5
:102B840003235CE10038024000004742800E4742C4
:102B94008A4B5B6F03F00203002BEAD17B681B684E
:102BA40003F00403002B00F097800023FB75834B94
:102BB4001B6C03F08053002B0FD10023BB607F4BB1
:102BC4001B6C7E4A43F0805313647C4B1B6C03F0F4
:102BD4008053BB60BB680123FB75794B1B6803F40E
:102BE4008073002B18D1764B1B68754A43F48073AD
:102BF4001360FEF7A7FC386108E0FEF7A3FC024669
:102C04003B69D31A022B01D9032318E16C4B1B68CF
:102C140003F48073002BF0D07B689B68012B06D1F2
:102C2400664B1B6F654A43F0010313671CE07B6826
:102C34009B68052B0CD1614B1B6F604A43F0040366
:102C440013675E4B1B6F5D4A43F0010313670BE090
:102C54005A4B1B6F594A23F001031367574B1B6FE1
:102C6400564A23F0040313677B689B68002B15D036
:102C7400FEF768FC38610AE0FEF764FC02463B6933
:102C8400D31A41F28832934201D90323D7E04B4B44
:102C94001B6F03F00203002BEED014E0FEF752FC8E
:102CA40038610AE0FEF74EFC02463B69D31A41F252
:102CB4008832934201D90323C1E0404B1B6F03F0D8
:102CC4000203002BEED1FB7D012B05D13B4B1B6C8A
:102CD4003A4A23F0805313647B689B69002B00F00D
:102CE400AD80364B9B6803F00C03082B60D07B68E7
:102CF4009B69022B45D1334B00221A60FEF722FC5C
:102D0400386108E0FEF71EFC02463B69D31A022B29
:102D140001D9032393E0294B1B6803F00073002BB4
:102D2400F0D17B68DA697B681B6A1A437B685B6A4B
:102D34009B011A437B689B6A5B08013B1B041A4393
:102D44007B68DB6A1B061A437B681B6B1B071B49EA
:102D540013434B601B4B01221A60FEF7F3FB3861EF
:102D640008E0FEF7EFFB02463B69D31A022B01D9B8
:102D7400032364E0114B1B6803F00073002BF0D0B5
:102D84005CE0104B00221A60FEF7DCFB386108E0BF
:102D9400FEF7D8FB02463B69D31A022B01D9032361
:102DA4004DE0064B1B6803F00073002BF0D145E0A7
:102DB4007B689B69012B07D1012340E00038024066
:102DC40000700040600047421F4B5B68FB607B68FB
:102DD4009B69012B30D0FB6803F480027B68DB69BC
:102DE4009A4229D1FB6803F03F027B681B6A9A422E
:102DF40022D1FA6847F6C07313407A68526A920186
:102E0400934219D1FB6803F440327B689B6A5B08E8
:102E1400013B1B049A420FD1FB6803F070627B688C
:102E2400DB6A1B069A4207D1FB6803F0E0427B6829
:102E34001B6B1B079A4201D0012300E000231846B4
:102E44001837BD4680BD00BF0038024080B582B04F
:102E540000AF78607B68002B01D101233FE07B68E1
:102E640093F83D30DBB2002B06D17B68002283F857
:102E74003C207868FEF704FA7B68242283F83D201E
:102E84007B681B68DA687B681B6822F40052DA608E
:102E9400786800F011FE7B681B681A697B681B6800
:102EA40022F490421A617B681B685A697B681B682C
:102EB40022F02A025A617B681B68DA687B681B6807
:102EC40042F40052DA607B6800221A647B68202294
:102ED40083F83D207B68202283F83E200023184697
:102EE4000837BD4680BD80B58AB002AFF860B960CE
:102EF4003B601346FB8000237B61FB6893F83D3005
:102F0400DBB2202B7CD1BB68002B02D0FB88002BCA
:102F140001D1012375E0FB6893F83C30012B01D10A
:102F240002236EE0FB68012283F83C20FB68002248
:102F34001A64FB68212283F83D20FEF703FB7861C5
:102F4400FB68FA889A84FB68FA88DA84FB689B68D1
:102F5400B3F5805F08D1FB681B69002B04D1002303
:102F6400FB61BB68BB6103E0BB68FB610023BB6121
:102F7400FB68002283F83C202AE03B6800937B69CD
:102F840000228021F86800F051FB0346002B01D099
:102F9400032336E0FB69002B0BD1BB691B881A465F
:102FA400FB681B68C2F308025A60BB690233BB6149
:102FB40007E0FB691A78FB681B685A60FB690133F8
:102FC400FB61FB68DB8C9BB2013B9AB2FB68DA8441
:102FD400FB68DB8C9BB2002BCFD13B6800937B69F1
:102FE40000224021F86800F021FB0346002B01D0A9
:102FF400032306E0FB68202283F83D20002300E041
:10300400022318462037BD4680BD80B58CB000AF82
:10301400F860B9601346FB80FB6893F83E30DBB27E
:10302400202B52D1BB68002B02D0FB88002B01D18E
:1030340001234BE0FB6893F83C30012B01D10223C0
:1030440044E0FB68012283F83C20FB6801221A63F8
:10305400FB881A46B968F86800F056FB034687F8FF
:103064002F3097F82F30002B2CD1FB681B6B012BD2
:1030740025D100233B61FB681B681B683B61FB682F
:103084001B685B683B613B69FB681B680C33BB6175
:10309400BB6953E8003F7B617B6943F01003BB626B
:1030A400FB681B680C33BA6A7A623B62396A7A6AD3
:1030B40041E80023FB61FB69002BE5D102E0012319
:1030C40087F82F3097F82F3000E002231846303766
:1030D400BD4680BD80B5BAB000AF78607B681B6820
:1030E4001B68C7F8E4307B681B68DB68C7F8E0300E
:1030F4007B681B685B69C7F8DC300023C7F8D830ED
:103104000023C7F8D430D7F8E43003F00F03C7F82E
:10311400D830D7F8D830002B0FD1D7F8E43003F0EB
:103124002003002B09D0D7F8E03003F02003002B54
:1031340003D0786800F005FC56E2D7F8D830002BAD
:1031440000F0DE80D7F8DC3003F00103002B06D159
:10315400D7F8E03003F49073002B00F0D180D7F857
:10316400E43003F00103002B0BD0D7F8E03003F474
:103174008073002B05D07B681B6C43F001027B68D5
:103184001A64D7F8E43003F00403002B0BD0D7F80B
:10319400DC3003F00103002B05D07B681B6C43F08B
:1031A40002027B681A64D7F8E43003F00203002BB0
:1031B4000BD0D7F8DC3003F00103002B05D07B687B
:1031C4001B6C43F004027B681A64D7F8E43003F004
:1031D4000803002B11D0D7F8E03003F02003002BB4
:1031E40005D1D7F8DC3003F00103002B05D07B6850
:1031F4001B6C43F008027B681A647B681B6C002B11
:1032040000F0ED81D7F8E43003F02003002B08D060
:10321400D7F8E03003F02003002B02D0786800F0E8
:1032240090FB7B681B685B6903F04003402B0CBF79
:1032340001230023DBB2C7F8D4307B681B6C03F096
:103244000803002B03D1D7F8D430002B4FD0786873
:1032540000F098FA7B681B685B6903F04003402B1D
:1032640041D17B681B681433C7F89C30D7F89C3075
:1032740053E8003FC7F89830D7F8983023F040035C
:10328400C7F8D0307B681B681433D7F8D020C7F850
:10329400A820C7F8A430D7F8A410D7F8A82041E88C
:1032A4000023C7F8A030D7F8A030002BD9D17B6811
:1032B4009B6B002B13D07B689B6B7D4A1A657B68E4
:1032C4009B6B1846FEF7EFFA0346002B16D07B687B
:1032D4009B6B1B6D7A68926B104698470EE078687A
:1032E40000F09AF90AE0786800F096F906E0786848
:1032F40000F092F97B6800221A6470E100BF6EE16D
:103304007B681B6B012B40F04A81D7F8E43003F053
:103314001003002B00F04381D7F8E03003F01003D2
:10332400002B00F03C810023BB607B681B681B689A
:10333400BB607B681B685B68BB60BB687B681B68A1
:103344005B6903F04003402B40F0B4807B689B6BC7
:103354001B685B68A7F8BE30B7F8BE30002B00F0DE
:1033640040817B689B8DB7F8BE209A4280F03981FA
:103374007B68B7F8BE20DA857B689B6BDB69B3F5A5
:10338400807F00F088807B681B680C33C7F8883026
:10339400D7F8883053E8003FC7F88430D7F8843032
:1033A40023F48073C7F8B8307B681B680C33D7F8F4
:1033B400B820C7F89420C7F89030D7F89010D7F801
:1033C400942041E80023C7F88C30D7F88C30002BC8
:1033D400D9D17B681B6814337B677B6F53E8003F4C
:1033E4003B673B6F23F00103C7F8B4307B681B686D
:1033F4001433D7F8B420C7F88020FB67F96FD7F8E7
:10340400802041E80023BB67BB6F002BE1D17B68C0
:103414001B6814333B663B6E53E8003FFB65FB6D52
:1034240023F04003C7F8B0307B681B681433D7F827
:10343400B020FA66BB66B96EFA6E41E800237B667B
:103444007B6E002BE3D17B68202283F83E207B68CF
:1034540000221A637B681B680C33FB64FB6C53E823
:10346400003FBB64BB6C23F01003C7F8AC307B682F
:103474001B680C33D7F8AC20BA657B65796DBA6DDF
:1034840041E800233B653B6D002BE3D17B689B6BDC
:103494001846FEF798F97B689A8D7B68DB8D9BB2A2
:1034A400D31A9BB219467868FDF796FE99E000BFDF
:1034B4004F3800087B689A8D7B68DB8D9BB2D31AEA
:1034C400A7F8CE307B68DB8D9BB2002B00F08B809D
:1034D400B7F8CE30002B00F086807B681B680C3375
:1034E400BB63BB6B53E8003F7B637B6B23F490733C
:1034F400C7F8C8307B681B680C33D7F8C8207A64D7
:103504003B64396C7A6C41E80023FB63FB6B002B52
:10351400E3D17B681B6814337B627B6A53E8003F0A
:103524003B623B6A23F00103C7F8C4307B681B6825
:103534001433D7F8C4203A63FB62F96A3A6B41E862
:103544000023BB62BB6A002BE3D17B68202283F893
:103554003E207B6800221A637B681B680C333B6146
:103564003B6953E8003FFB60FB6823F01003C7F896
:10357400C0307B681B680C33D7F8C020FA61BB618C
:10358400B969FA6941E800237B617B69002BE3D1C7
:10359400B7F8CE3019467868FDF71EFE23E0D7F859
:1035A400E43003F08003002B09D0D7F8E03003F0B7
:1035B4008003002B03D0786800F05BF914E0D7F89F
:1035C400E43003F04003002B0ED0D7F8E03003F0D2
:1035D4004003002B08D0786800F09BF904E000BF9A
:1035E40002E000BF00E000BFE837BD4680BD00BF79
:1035F40080B483B000AF786000BF0C37BD465DF87F
:10360400047B704780B483B000AF786000BF0C3790
:10361400BD465DF8047B704780B483B000AF78602A
:1036240000BF0C37BD465DF8047B704780B590B091
:1036340000AFF860B9603B601346FB7150E0BB6CAF
:10364400B3F1FF3F4CD0BB6C002B07D0FDF77AFFE2
:1036540002463B68D31ABA6C9A4241D2FB681B6893
:103664000C33BB62BB6A53E8003F7B627B6A23F482
:10367400D073FB63FB681B680C33FA6B7A633B63A0
:10368400396B7A6B41E80023FB62FB6A002BE5D1BE
:10369400FB681B6814337B617B6953E8003F3B6123
:1036A4003B6923F00103BB63FB681B681433BA6BEB
:1036B4003A62FB61F9693A6A41E80023BB61BB697C
:1036C400002BE5D1FB68202283F83D20FB682022F3
:1036D40083F83E20FB68002283F83C2003230FE09C
:1036E400FB681B681A68BB681340BA689A420CBF2F
:1036F40001230023DBB21A46FB799A429FD00023B0
:1037040018464037BD4680BD80B485B000AFF86030
:10371400B9601346FB80FB68BA689A62FB68FA8852
:103724009A85FB68FA88DA85FB6800221A64FB68CC
:10373400222283F83E20FB68002283F83C20FB68A9
:103744001B69002B07D0FB681B68DA68FB681B68E1
:1037540042F48072DA60FB681B685A69FB681B6874
:1037640042F001025A61FB681B68DA68FB681B6857
:1037740042F02002DA60002318461437BD465DF893
:10378400047B704780B495B000AF78607B681B6899
:103794000C337B637B6B53E8003F3B633B6B23F44D
:1037A4009073FB647B681B680C33FA6C3A64FB63AC
:1037B400F96B3A6C41E80023BB63BB6B002BE5D18A
:1037C4007B681B6814333B623B6A53E8003FFB6130
:1037D400FB6923F00103BB647B681B681433BA6C78
:1037E400FA62BB62B96AFA6A41E800237B627B6AC7
:1037F400002BE5D17B681B6B012B19D17B681B68FF
:103804000C33FB60FB6853E8003FBB60BB6823F0EC
:1038140010037B647B681B680C337A6CBA617B6130
:103824007969BA6941E800233B613B69002BE5D122
:103834007B68202283F83E207B6800221A6300BF45
:103844005437BD465DF8047B704780B584B000AF43
:1038540078607B689B6BFB60FB680022DA85FB6801
:103864000022DA84F868FFF7D7FE00BF1037BD46A0
:1038740080BD80B485B000AF78607B6893F83D303C
:10388400DBB2212B3ED17B689B68B3F5805F14D1FA
:103894007B681B69002B10D17B681B6AFB60FB688B
:1038A4001B881A467B681B68C2F308025A607B684F
:1038B4001B6A9A1C7B681A6208E07B681B6A591CA5
:1038C4007A6811621A787B681B685A607B68DB8CA3
:1038D4009BB2013B9BB27A681946D184002B0FD16D
:1038E4007B681B68DA687B681B6822F08002DA60F8
:1038F4007B681B68DA687B681B6842F04002DA6008
:10390400002300E0022318461437BD465DF8047B0B
:10391400704780B582B000AF78607B681B68DA6856
:103924007B681B6822F04002DA607B68202283F8FF
:103934003D207868FFF75CFE002318460837BD4633
:1039440080BD80B58CB000AF78607B6893F83E3062
:10395400DBB2222B40F0AB807B689B68B3F5805FC1
:1039640017D17B681B69002B13D10023FB627B6892
:103974009B6ABB627B681B685B689BB2C3F30803EA
:103984009AB2BB6A1A807B689B6A9A1C7B689A62AB
:1039940026E07B689B6AFB620023BB627B689B68B2
:1039A400B3F5805F07D07B689B68002B0AD17B68E6
:1039B4001B69002B06D17B681B685B68DAB2FB6A63
:1039C4001A7008E07B681B685B68DBB203F07F0356
:1039D400DAB2FB6A1A707B689B6A5A1C7B689A622B
:1039E4007B68DB8D9BB2013B9BB27A681946D1851B
:1039F400002B5AD17B681B68DA687B681B6822F04D
:103A04002002DA607B681B68DA687B681B6822F432
:103A14008072DA607B681B685A697B681B6822F0D5
:103A240001025A617B68202283F83E207B681B6B6D
:103A3400012B35D17B6800221A637B681B680C3329
:103A44007B617B6953E8003F3B613B6923F01003D2
:103A54007B627B681B680C337A6A3A62FB61F969A2
:103A64003A6A41E80023BB61BB69002BE5D17B685E
:103A74001B681B6803F01003102B0AD10023FB60A2
:103A84007B681B681B68FB607B681B685B68FB606A
:103A9400FB687B689B8D19467868FDF79DFB02E007
:103AA4007868FFF7AFFD002302E0002300E0022363
:103AB40018463037BD4680BD2DE9B04FC0B000AFC9
:103AC400C7F8F400D7F8F4301B681B6923F440509E
:103AD400D7F8F430D968D7F8F4301A6840EA01030B
:103AE4001361D7F8F4309A68D7F8F4301B691A4395
:103AF400D7F8F4305B691A43D7F8F430DB69134321
:103B0400C7F8F830D7F8F4301B68DB6823F41641A3
:103B140021F00C01D7F8F4301A68D7F8F8300B43C9
:103B2400D360D7F8F4301B685B6923F44070D7F88E
:103B3400F4309969D7F8F4301A6840EA0103536104
:103B4400D7F8F4301A688F4B9A4205D0D7F8F4307E
:103B54001A688D4B9A4204D1FEF796FCC7F8FC0014
:103B640003E0FEF77DFCC7F8FC00D7F8F430DB690E
:103B7400B3F5004F40F00C81D7F8FC300022C7F8B1
:103B8400E830C7F8EC20D7E93A4522462B4691188D
:103B9400B9655B41FB65D7E91623214612EB0108A1
:103BA400294643EB01094FF000024FF000034FEAAE
:103BB400C90343EA58734FEAC8029046994623461C
:103BC40018EB0303C7F8E0302B4649EB0303C7F8AF
:103BD400E430D7F8F4305B680022C7F8D830C7F86F
:103BE400DC20D7E936120B46DB183B65134642EB63
:103BF40003037B65D7E91423D7E93801FCF708FBF5
:103C040002460B46614BA3FB02235B091C01D7F858
:103C1400FC300022C7F8D030C7F8D420D7E9348963
:103C240042464B469118B9645B41FB64D7E91223C1
:103C3400414612EB010A494643EB010B4FF00002E7
:103C44004FF000034FEACB0343EA5A734FEACA0228
:103C540092469B4643461AEB0303C7F8C8304B46CB
:103C64004BEB0303C7F8CC30D7F8F4305B68002281
:103C7400C7F8C030C7F8C420D7E930120B46DB18A8
:103C84003B64134642EB03037B64D7E91023D7E973
:103C94003201FCF7BDFA02460B4611463B4BA3FB2F
:103CA40001235B09642202FB03F3CB1ADB0003F15B
:103CB4003202364BA3FB02235B095B0003F4F87367
:103CC4001C44D7F8FC300022C7F8B830C7F8BC2031
:103CD400D7E92E8942464B469118B9635B41FB6391
:103CE400D7E90E2341465118396349464B417B635A
:103CF4004FF000024FF00003D7E90CAB5946CB005C
:103D0400514643EA51735146CA00104619460346C8
:103D140042469B18C7F8B0304B460A4642EB0303B1
:103D2400C7F8B430D7F8F4305B680022C7F8A8307D
:103D3400C7F8AC20D7E92A120B46DB18BB6213463E
:103D440042EB0303FB62D7E90A23D7E92C01FCF712
:103D54005FFA02460B460D4BA3FB02135B09642179
:103D640001FB03F3D31ADB003233084AA2FB03231B
:103D74005B0903F00702D7F8F4301B6822449A6009
:103D840005E100BF00100140001401401F85EB5104
:103D9400D7F8FC300022C7F8A030C7F8A420D7E930
:103DA400288942464B46911839625B417B62D7E9C8
:103DB400082341465418494643EB01054FF00002DD
:103DC4004FF00003EB0043EA5473E20014461D462F
:103DD4004346E318C7F898304B4645EB0303C7F84E
:103DE4009C30D7F8F4305B680022C7F89030C7F8ED
:103DF40094204FF000024FF00003D7E924452946F0
:103E04008B00214643EA917321468A00D7E92601B3
:103E1400FCF7FEF902460B46604BA3FB02235B0949
:103E24001C01D7F8FC300022C7F88830C7F88C2072
:103E3400D7E9228942464B469118B9615B41FB613F
:103E4400D7E9062341465118396149464B417B6104
:103E54004FF000024FF00003D7E904AB5946CB0002
:103E6400514643EA51735146CA0010461946034667
:103E740042469B18C7F880304B460A4642EB030380
:103E8400C7F88430D7F8F4305B680022BB67FA6760
:103E94004FF000024FF00003D7E91E8949468B001A
:103EA400414643EA917341468A00D7E92001FCF771
:103EB400AFF902460B46394BA3FB02135B0964219D
:103EC40001FB03F3D31A1B013233344AA2FB03234D
:103ED4005B0903F0F0031C44D7F8FC3000223B6775
:103EE4007A67D7E91C8942464B469118B9605B4111
:103EF400FB60D7E9022341465118396049464B41DA
:103F04007B604FF000024FF00003D7E900AB594645
:103F1400CB00514643EA51735146CA001046194634
:103F2400034642469B18BB664B460A4642EB0303D4
:103F3400FB66D7F8F4305B6800223B667A664FF084
:103F440000024FF00003D7E9188949468B00414627
:103F540043EA917341468A00D7E91A01FCF758F9FC
:103F640002460B460D4BA3FB02135B09642101FBC4
:103F740003F3D31A1B013233084AA2FB03235B0960
:103F840003F00F02D7F8F4301B6822449A6000BF94
:103F940007F58077BD46BDE8B08F00BF1F85EB51A4
:103FA40070B50D4D0D4C641BA4100026A64209D11A
:103FB4000B4D0C4C00F020F8641BA4100026A64204
:103FC40005D170BD55F8043B98470136EEE755F826
:103FD400043B98470136F2E7AC400008AC400008C7
:103FE400AC400008B040000802440346934200D1AC
:103FF400704703F8011BF9E7F8B500BFF8BC08BC2B
:104004009E467047F8B500BFF8BC08BC9E46704792
:10401400666C6173685F646174615F636F7272651B
:1040240063740000666C6173685F6572726F725FBF
:104034006F665F777269746500000000666C617377
:10404400685F696E636F72726563745F7265636FD4
:10405400726465645F646174615F69665F466C6124
:10406400736800007472616E6665725F4F4B0A007C
:104074006372635F6572726F720A000074696D65C2
:104084006F75740A000000000000000000000000CA
:1040940001020304060708090000000001020304EA
:0840A400A0C1FF7F0100000034
:0440AC00E90100081E
:0440B000C50100083E
:0C40B4000024F4001000000001000000D7
:04000005080013C11B
:00000001FF
